{
  "contractName": "Cert",
  "abi": [
    {
      "constant": true,
      "inputs": [],
      "name": "issuedBy",
      "outputs": [
        {
          "name": "",
          "type": "bytes32"
        }
      ],
      "payable": false,
      "stateMutability": "view",
      "type": "function"
    },
    {
      "constant": true,
      "inputs": [],
      "name": "certHash",
      "outputs": [
        {
          "name": "",
          "type": "bytes32"
        }
      ],
      "payable": false,
      "stateMutability": "view",
      "type": "function"
    },
    {
      "constant": true,
      "inputs": [],
      "name": "issuingDate",
      "outputs": [
        {
          "name": "",
          "type": "bytes32"
        }
      ],
      "payable": false,
      "stateMutability": "view",
      "type": "function"
    },
    {
      "constant": true,
      "inputs": [],
      "name": "issuedTo",
      "outputs": [
        {
          "name": "",
          "type": "bytes32"
        }
      ],
      "payable": false,
      "stateMutability": "view",
      "type": "function"
    },
    {
      "inputs": [
        {
          "name": "_issuedBy",
          "type": "bytes32"
        },
        {
          "name": "_issuedTo",
          "type": "bytes32"
        },
        {
          "name": "_issuingDate",
          "type": "bytes32"
        },
        {
          "name": "_certHash",
          "type": "bytes32"
        },
        {
          "name": "_CERTMANAGER_CONTRACT",
          "type": "address"
        }
      ],
      "payable": false,
      "stateMutability": "nonpayable",
      "type": "constructor"
    },
    {
      "payable": false,
      "stateMutability": "nonpayable",
      "type": "fallback"
    }
  ],
  "bytecode": "0x608060405234801561001057600080fd5b5060405160a08061033f833981018060405260a081101561003057600080fd5b8101908080519060200190929190805190602001909291908051906020019092919080519060200190929190805190602001909291905050508460008190555083600181905550826002819055508160038190555060008190508073ffffffffffffffffffffffffffffffffffffffff1663a0d8ca1930888888886040518663ffffffff167c0100000000000000000000000000000000000000000000000000000000028152600401808673ffffffffffffffffffffffffffffffffffffffff1673ffffffffffffffffffffffffffffffffffffffff16815260200185815260200184815260200183815260200182815260200195505050505050600060405180830381600087803b15801561014557600080fd5b505af1158015610159573d6000803e3d6000fd5b505050505050505050506101cd806101726000396000f3fe608060405260043610610062576000357c0100000000000000000000000000000000000000000000000000000000900463ffffffff1680631f4591dd146100dd5780634c0822f214610108578063877113321461013357806388d8c12b1461015e575b34801561006e57600080fd5b506040517f08c379a000000000000000000000000000000000000000000000000000000000815260040180806020018281038252600f8152602001807f6e6f20657468206163636570746564000000000000000000000000000000000081525060200191505060405180910390fd5b3480156100e957600080fd5b506100f2610189565b6040518082815260200191505060405180910390f35b34801561011457600080fd5b5061011d61018f565b6040518082815260200191505060405180910390f35b34801561013f57600080fd5b50610148610195565b6040518082815260200191505060405180910390f35b34801561016a57600080fd5b5061017361019b565b6040518082815260200191505060405180910390f35b60005481565b60035481565b60025481565b6001548156fea165627a7a72305820972ba487682f83c0ce1037f1df2c95891743dace1013d1828ad410e47aef5aaa0029",
  "source": "pragma solidity >=0.4.22 <0.6.0;\r\n\r\nimport \"./CertManager.sol\";\r\n\r\ncontract Cert {\r\n\r\n     bytes32 public issuedBy;\r\n     bytes32 public issuedTo;\r\n     bytes32 public issuingDate;\r\n     bytes32 public certHash;\r\n\r\n     \r\n\r\n     constructor (\r\n         bytes32 _issuedBy, bytes32 _issuedTo, bytes32 _issuingDate, bytes32 _certHash, address _CERTMANAGER_CONTRACT) public {\r\n             issuedBy = _issuedBy;\r\n             issuedTo = _issuedTo;\r\n             issuingDate = _issuingDate;\r\n             certHash = _certHash;\r\n\r\n             CertManager manager = CertManager(_CERTMANAGER_CONTRACT); \r\n             manager.storeCertReference(address(this), _issuedBy, _issuedTo, _issuingDate, _certHash);             \r\n         }\r\n         \r\n          function ()  external {\r\n            // If anyone wants to send Ether to this contract, the transaction gets rejected\r\n            revert(\"no eth accepted\");\r\n        }\r\n\r\n}",
  "sourcePath": "D:/Users/sandr/Source/Repos/BlockchainProjects/IQCBlockCert/contracts/Cert.sol",
  "compiler": {
    "name": "solc",
    "version": "0.5.0+commit.1d4f565a.Emscripten.clang"
  },
  "schemaVersion": "3.0.3",
  "updatedAt": "2019-04-02T17:01:13.357Z",
  "devdoc": {
    "methods": {}
  },
  "userdoc": {
    "methods": {}
  }
}