{
  "contractName": "Database",
  "abi": [
    {
      "constant": true,
      "inputs": [
        {
          "name": "",
          "type": "address"
        }
      ],
      "name": "addressToHandler",
      "outputs": [
        {
          "name": "_name",
          "type": "string"
        },
        {
          "name": "_additionalInformation",
          "type": "string"
        }
      ],
      "payable": false,
      "stateMutability": "view",
      "type": "function",
      "signature": "0x590b2d9b"
    },
    {
      "constant": true,
      "inputs": [
        {
          "name": "",
          "type": "uint256"
        }
      ],
      "name": "products",
      "outputs": [
        {
          "name": "",
          "type": "address"
        }
      ],
      "payable": false,
      "stateMutability": "view",
      "type": "function",
      "signature": "0x7acc0b20"
    },
    {
      "constant": true,
      "inputs": [],
      "name": "owner",
      "outputs": [
        {
          "name": "",
          "type": "address"
        }
      ],
      "payable": false,
      "stateMutability": "view",
      "type": "function",
      "signature": "0x8da5cb5b"
    },
    {
      "constant": false,
      "inputs": [
        {
          "name": "newOwner",
          "type": "address"
        }
      ],
      "name": "transferOwnership",
      "outputs": [],
      "payable": false,
      "stateMutability": "nonpayable",
      "type": "function",
      "signature": "0xf2fde38b"
    },
    {
      "constant": true,
      "inputs": [
        {
          "name": "",
          "type": "uint256"
        }
      ],
      "name": "addressHandlerSupport",
      "outputs": [
        {
          "name": "",
          "type": "address"
        }
      ],
      "payable": false,
      "stateMutability": "view",
      "type": "function",
      "signature": "0xf6425cf6"
    },
    {
      "inputs": [],
      "payable": false,
      "stateMutability": "nonpayable",
      "type": "constructor",
      "signature": "constructor"
    },
    {
      "payable": false,
      "stateMutability": "nonpayable",
      "type": "fallback"
    },
    {
      "constant": true,
      "inputs": [],
      "name": "getNumberOfProducts",
      "outputs": [
        {
          "name": "",
          "type": "uint256"
        }
      ],
      "payable": false,
      "stateMutability": "view",
      "type": "function",
      "signature": "0x3ffd81fb"
    },
    {
      "constant": true,
      "inputs": [
        {
          "name": "index",
          "type": "uint256"
        }
      ],
      "name": "getProduct",
      "outputs": [
        {
          "name": "",
          "type": "address"
        }
      ],
      "payable": false,
      "stateMutability": "view",
      "type": "function",
      "signature": "0xb9db15b4"
    },
    {
      "constant": true,
      "inputs": [],
      "name": "getNumberOfHandlers",
      "outputs": [
        {
          "name": "",
          "type": "uint256"
        }
      ],
      "payable": false,
      "stateMutability": "view",
      "type": "function",
      "signature": "0x8a48e067"
    },
    {
      "constant": true,
      "inputs": [
        {
          "name": "index",
          "type": "address"
        }
      ],
      "name": "getHandler",
      "outputs": [
        {
          "name": "",
          "type": "string"
        },
        {
          "name": "",
          "type": "string"
        }
      ],
      "payable": false,
      "stateMutability": "view",
      "type": "function",
      "signature": "0xb6c9b393"
    },
    {
      "constant": false,
      "inputs": [
        {
          "name": "_address",
          "type": "address"
        },
        {
          "name": "_name",
          "type": "string"
        },
        {
          "name": "_additionalInformation",
          "type": "string"
        }
      ],
      "name": "addHandler",
      "outputs": [],
      "payable": false,
      "stateMutability": "nonpayable",
      "type": "function",
      "signature": "0xcaa63742"
    },
    {
      "constant": false,
      "inputs": [
        {
          "name": "productAddress",
          "type": "address"
        }
      ],
      "name": "storeProductReference",
      "outputs": [],
      "payable": false,
      "stateMutability": "nonpayable",
      "type": "function",
      "signature": "0x805593db"
    }
  ],
  "bytecode": "0x608060405234801561001057600080fd5b50336000806101000a81548173ffffffffffffffffffffffffffffffffffffffff021916908373ffffffffffffffffffffffffffffffffffffffff160217905550610ec3806100606000396000f3fe6080604052600436106100af576000357c0100000000000000000000000000000000000000000000000000000000900463ffffffff1680633ffd81fb146100c1578063590b2d9b146100ec5780637acc0b2014610222578063805593db1461029d5780638a48e067146102ee5780638da5cb5b14610319578063b6c9b39314610370578063b9db15b4146104a6578063caa6374214610521578063f2fde38b146106a0578063f6425cf6146106f1575b3480156100bb57600080fd5b50600080fd5b3480156100cd57600080fd5b506100d661076c565b6040518082815260200191505060405180910390f35b3480156100f857600080fd5b5061013b6004803603602081101561010f57600080fd5b81019080803573ffffffffffffffffffffffffffffffffffffffff169060200190929190505050610779565b604051808060200180602001838103835285818151815260200191508051906020019080838360005b8381101561017f578082015181840152602081019050610164565b50505050905090810190601f1680156101ac5780820380516001836020036101000a031916815260200191505b50838103825284818151815260200191508051906020019080838360005b838110156101e55780820151818401526020810190506101ca565b50505050905090810190601f1680156102125780820380516001836020036101000a031916815260200191505b5094505050505060405180910390f35b34801561022e57600080fd5b5061025b6004803603602081101561024557600080fd5b81019080803590602001909291905050506108cd565b604051808273ffffffffffffffffffffffffffffffffffffffff1673ffffffffffffffffffffffffffffffffffffffff16815260200191505060405180910390f35b3480156102a957600080fd5b506102ec600480360360208110156102c057600080fd5b81019080803573ffffffffffffffffffffffffffffffffffffffff16906020019092919050505061090b565b005b3480156102fa57600080fd5b50610303610974565b6040518082815260200191505060405180910390f35b34801561032557600080fd5b5061032e610981565b604051808273ffffffffffffffffffffffffffffffffffffffff1673ffffffffffffffffffffffffffffffffffffffff16815260200191505060405180910390f35b34801561037c57600080fd5b506103bf6004803603602081101561039357600080fd5b81019080803573ffffffffffffffffffffffffffffffffffffffff1690602001909291905050506109a6565b604051808060200180602001838103835285818151815260200191508051906020019080838360005b838110156104035780820151818401526020810190506103e8565b50505050905090810190601f1680156104305780820380516001836020036101000a031916815260200191505b50838103825284818151815260200191508051906020019080838360005b8381101561046957808201518184015260208101905061044e565b50505050905090810190601f1680156104965780820380516001836020036101000a031916815260200191505b5094505050505060405180910390f35b3480156104b257600080fd5b506104df600480360360208110156104c957600080fd5b8101908080359060200190929190505050610b5b565b604051808273ffffffffffffffffffffffffffffffffffffffff1673ffffffffffffffffffffffffffffffffffffffff16815260200191505060405180910390f35b34801561052d57600080fd5b5061069e6004803603606081101561054457600080fd5b81019080803573ffffffffffffffffffffffffffffffffffffffff1690602001909291908035906020019064010000000081111561058157600080fd5b82018360208201111561059357600080fd5b803590602001918460018302840111640100000000831117156105b557600080fd5b91908080601f016020809104026020016040519081016040528093929190818152602001838380828437600081840152601f19601f8201169050808301925050505050505091929192908035906020019064010000000081111561061857600080fd5b82018360208201111561062a57600080fd5b8035906020019184600183028401116401000000008311171561064c57600080fd5b91908080601f016020809104026020016040519081016040528093929190818152602001838380828437600081840152601f19601f820116905080830192505050505050509192919290505050610b9e565b005b3480156106ac57600080fd5b506106ef600480360360208110156106c357600080fd5b81019080803573ffffffffffffffffffffffffffffffffffffffff169060200190929190505050610cfc565b005b3480156106fd57600080fd5b5061072a6004803603602081101561071457600080fd5b8101908080359060200190929190505050610d9a565b604051808273ffffffffffffffffffffffffffffffffffffffff1673ffffffffffffffffffffffffffffffffffffffff16815260200191505060405180910390f35b6000600180549050905090565b6002602052806000526040600020600091509050806000018054600181600116156101000203166002900480601f0160208091040260200160405190810160405280929190818152602001828054600181600116156101000203166002900480156108255780601f106107fa57610100808354040283529160200191610825565b820191906000526020600020905b81548152906001019060200180831161080857829003601f168201915b505050505090806001018054600181600116156101000203166002900480601f0160208091040260200160405190810160405280929190818152602001828054600181600116156101000203166002900480156108c35780601f10610898576101008083540402835291602001916108c3565b820191906000526020600020905b8154815290600101906020018083116108a657829003601f168201915b5050505050905082565b6001818154811015156108dc57fe5b906000526020600020016000915054906101000a900473ffffffffffffffffffffffffffffffffffffffff1681565b60018190806001815401808255809150509060018203906000526020600020016000909192909190916101000a81548173ffffffffffffffffffffffffffffffffffffffff021916908373ffffffffffffffffffffffffffffffffffffffff1602179055505050565b6000600380549050905090565b6000809054906101000a900473ffffffffffffffffffffffffffffffffffffffff1681565b6060806109b1610dd8565b600260008573ffffffffffffffffffffffffffffffffffffffff1673ffffffffffffffffffffffffffffffffffffffff168152602001908152602001600020604080519081016040529081600082018054600181600116156101000203166002900480601f016020809104026020016040519081016040528092919081815260200182805460018160011615610100020316600290048015610a945780601f10610a6957610100808354040283529160200191610a94565b820191906000526020600020905b815481529060010190602001808311610a7757829003601f168201915b50505050508152602001600182018054600181600116156101000203166002900480601f016020809104026020016040519081016040528092919081815260200182805460018160011615610100020316600290048015610b365780601f10610b0b57610100808354040283529160200191610b36565b820191906000526020600020905b815481529060010190602001808311610b1957829003601f168201915b5050505050815250509050806000015181602001518191508090509250925050915091565b6000600182815481101515610b6c57fe5b9060005260206000200160009054906101000a900473ffffffffffffffffffffffffffffffffffffffff169050919050565b6000809054906101000a900473ffffffffffffffffffffffffffffffffffffffff1673ffffffffffffffffffffffffffffffffffffffff163373ffffffffffffffffffffffffffffffffffffffff16141515610bf957600080fd5b610c01610dd8565b82816000018190525081816020018190525080600260008673ffffffffffffffffffffffffffffffffffffffff1673ffffffffffffffffffffffffffffffffffffffff1681526020019081526020016000206000820151816000019080519060200190610c6f929190610df2565b506020820151816001019080519060200190610c8c929190610df2565b5090505060038490806001815401808255809150509060018203906000526020600020016000909192909190916101000a81548173ffffffffffffffffffffffffffffffffffffffff021916908373ffffffffffffffffffffffffffffffffffffffff1602179055505050505050565b6000809054906101000a900473ffffffffffffffffffffffffffffffffffffffff1673ffffffffffffffffffffffffffffffffffffffff163373ffffffffffffffffffffffffffffffffffffffff16141515610d5757600080fd5b806000806101000a81548173ffffffffffffffffffffffffffffffffffffffff021916908373ffffffffffffffffffffffffffffffffffffffff16021790555050565b600381815481101515610da957fe5b906000526020600020016000915054906101000a900473ffffffffffffffffffffffffffffffffffffffff1681565b604080519081016040528060608152602001606081525090565b828054600181600116156101000203166002900490600052602060002090601f016020900481019282601f10610e3357805160ff1916838001178555610e61565b82800160010185558215610e61579182015b82811115610e60578251825591602001919060010190610e45565b5b509050610e6e9190610e72565b5090565b610e9491905b80821115610e90576000816000905550600101610e78565b5090565b9056fea165627a7a723058206261dcfbc40da57c35e81bea9b27dc448db9cf3ac720b1e235f75f5a27ca013c0029",
  "source": "pragma solidity >=0.4.22 <0.6.0;\r\n\r\nimport \"./Owned.sol\";\r\n\r\ncontract Database is owned {\r\n    // addresses of the Products referenced in this database\r\n    address[] public products;\r\n\r\n    // struct which represents a Handler for the products stored in the database.\r\n    struct Handler {\r\n        // indicates the name of a Handler.\r\n        string _name;\r\n        // Additional information about the Handler, generally as a JSON object\r\n        string _additionalInformation;\r\n    }\r\n\r\n    // Relates an address with a Handler record.\r\n    mapping(address => Handler) public addressToHandler;\r\n    address[] public addressHandlerSupport;\r\n\r\n    /*  Constructor to create a Database */\r\n    constructor() public {}\r\n\r\n    function () external{\r\n        // If anyone wants to send Ether to this contract, the transaction gets rejected\r\n        revert();\r\n    }\r\n\r\n    function getNumberOfProducts() public view returns(uint256)  {\r\n        return products.length;\r\n    }\r\n\r\n    function getProduct(uint index) public view returns(address) {\r\n        return products[index];\r\n    }\r\n\r\n    function getNumberOfHandlers() public view returns(uint256)  {\r\n        return addressHandlerSupport.length;\r\n    }\r\n\r\n    //Get HAndler Function\r\n    function getHandler(address index) public view returns(string memory, string memory) {\r\n        Handler memory h = addressToHandler [index];\r\n        return (h._name, h._additionalInformation);\r\n    }\r\n\r\n\r\n    /*   Function to add a Handler reference\r\n        @param _address address of the handler\r\n        @param _name The name of the Handler\r\n        @param _additionalInformation Additional information about the Product,\r\n                generally as a JSON object. */\r\n    function addHandler (\r\n        address _address, string memory _name, string memory _additionalInformation) onlyOwner public {\r\n        Handler memory handler;\r\n        handler._name = _name;\r\n        handler._additionalInformation = _additionalInformation;\r\n\r\n        addressToHandler[_address] = handler;\r\n        addressHandlerSupport.push(_address);\r\n    }\r\n\r\n    /*  Function to add a product reference\r\n       @param productAddress address of the product */\r\n    function storeProductReference(address productAddress) public {\r\n        products.push(productAddress);\r\n    }\r\n}",
  "sourcePath": "D:\\Users\\sandr\\Source\\Repos\\BlockchainProjects\\Pomi_SCTS\\contracts\\Database.sol",
  "compiler": {
    "name": "solc",
    "version": "0.5.0+commit.1d4f565a.Emscripten.clang"
  },
  "schemaVersion": "3.0.3",
  "updatedAt": "2019-07-02T08:16:42.432Z",
  "devdoc": {
    "methods": {}
  },
  "userdoc": {
    "methods": {}
  }
}