{
  "contractName": "Product",
  "abi": [
    {
      "constant": true,
      "inputs": [],
      "name": "name",
      "outputs": [
        {
          "name": "",
          "type": "bytes32"
        }
      ],
      "payable": false,
      "stateMutability": "view",
      "type": "function",
      "signature": "0x06fdde03"
    },
    {
      "constant": true,
      "inputs": [
        {
          "name": "",
          "type": "uint256"
        }
      ],
      "name": "childProducts",
      "outputs": [
        {
          "name": "",
          "type": "address"
        }
      ],
      "payable": false,
      "stateMutability": "view",
      "type": "function",
      "signature": "0x0a430d89"
    },
    {
      "constant": true,
      "inputs": [],
      "name": "DATABASE_CONTRACT",
      "outputs": [
        {
          "name": "",
          "type": "address"
        }
      ],
      "payable": false,
      "stateMutability": "view",
      "type": "function",
      "signature": "0x301374c6"
    },
    {
      "constant": true,
      "inputs": [],
      "name": "isConsumed",
      "outputs": [
        {
          "name": "",
          "type": "bool"
        }
      ],
      "payable": false,
      "stateMutability": "view",
      "type": "function",
      "signature": "0x7a0d0031"
    },
    {
      "constant": true,
      "inputs": [
        {
          "name": "",
          "type": "uint256"
        }
      ],
      "name": "actions",
      "outputs": [
        {
          "name": "handler",
          "type": "address"
        },
        {
          "name": "description",
          "type": "bytes32"
        },
        {
          "name": "lon",
          "type": "uint256"
        },
        {
          "name": "lat",
          "type": "uint256"
        },
        {
          "name": "timestamp",
          "type": "uint256"
        },
        {
          "name": "blockNumber",
          "type": "uint256"
        }
      ],
      "payable": false,
      "stateMutability": "view",
      "type": "function",
      "signature": "0x83240f83"
    },
    {
      "constant": true,
      "inputs": [],
      "name": "additionalInformation",
      "outputs": [
        {
          "name": "",
          "type": "bytes32"
        }
      ],
      "payable": false,
      "stateMutability": "view",
      "type": "function",
      "signature": "0x87b3eaba"
    },
    {
      "constant": true,
      "inputs": [
        {
          "name": "",
          "type": "uint256"
        }
      ],
      "name": "parentProducts",
      "outputs": [
        {
          "name": "",
          "type": "address"
        }
      ],
      "payable": false,
      "stateMutability": "view",
      "type": "function",
      "signature": "0xf227867f"
    },
    {
      "inputs": [
        {
          "name": "_name",
          "type": "bytes32"
        },
        {
          "name": "_additionalInformation",
          "type": "bytes32"
        },
        {
          "name": "_lat",
          "type": "uint256"
        },
        {
          "name": "_lon",
          "type": "uint256"
        },
        {
          "name": "_DATABASE_CONTRACT",
          "type": "address"
        }
      ],
      "payable": false,
      "stateMutability": "nonpayable",
      "type": "constructor",
      "signature": "constructor"
    },
    {
      "payable": false,
      "stateMutability": "nonpayable",
      "type": "fallback"
    },
    {
      "constant": true,
      "inputs": [],
      "name": "getNumberOfActions",
      "outputs": [
        {
          "name": "",
          "type": "uint256"
        }
      ],
      "payable": false,
      "stateMutability": "view",
      "type": "function",
      "signature": "0xcd2048b2"
    },
    {
      "constant": true,
      "inputs": [
        {
          "name": "index",
          "type": "uint256"
        }
      ],
      "name": "getAction",
      "outputs": [
        {
          "name": "",
          "type": "address"
        },
        {
          "name": "",
          "type": "bytes32"
        },
        {
          "name": "",
          "type": "uint256"
        },
        {
          "name": "",
          "type": "uint256"
        },
        {
          "name": "",
          "type": "uint256"
        },
        {
          "name": "",
          "type": "uint256"
        }
      ],
      "payable": false,
      "stateMutability": "view",
      "type": "function",
      "signature": "0xb6e76873"
    },
    {
      "constant": false,
      "inputs": [
        {
          "name": "description",
          "type": "bytes32"
        },
        {
          "name": "lat",
          "type": "uint256"
        },
        {
          "name": "lon",
          "type": "uint256"
        },
        {
          "name": "_consumed",
          "type": "bool"
        }
      ],
      "name": "addAction",
      "outputs": [],
      "payable": false,
      "stateMutability": "nonpayable",
      "type": "function",
      "signature": "0x2e61cdec"
    },
    {
      "constant": false,
      "inputs": [
        {
          "name": "newProductAddress",
          "type": "address"
        },
        {
          "name": "lat",
          "type": "uint256"
        },
        {
          "name": "lon",
          "type": "uint256"
        }
      ],
      "name": "collaborateInMerge",
      "outputs": [],
      "payable": false,
      "stateMutability": "nonpayable",
      "type": "function",
      "signature": "0xc0a9ef46"
    },
    {
      "constant": false,
      "inputs": [],
      "name": "consume",
      "outputs": [],
      "payable": false,
      "stateMutability": "nonpayable",
      "type": "function",
      "signature": "0x1dedc6f7"
    }
  ],
  "bytecode": "0x608060405234801561001057600080fd5b5060405160a080611056833981018060405260a081101561003057600080fd5b810190808051906020019092919080519060200190929190805190602001909291908051906020019092919080519060200190929190505050846004819055506000600360006101000a81548160ff02191690831515021790555083600581905550806000806101000a81548173ffffffffffffffffffffffffffffffffffffffff021916908373ffffffffffffffffffffffffffffffffffffffff1602179055506100da6102f3565b33816000019073ffffffffffffffffffffffffffffffffffffffff16908173ffffffffffffffffffffffffffffffffffffffff16815250507f50726f64756374206372656174696f6e00000000000000000000000000000000816020018181525050828160400181815250508381606001818152505042816080018181525050438160a00181815250506006819080600181540180825580915050906001820390600052602060002090600602016000909192909190915060008201518160000160006101000a81548173ffffffffffffffffffffffffffffffffffffffff021916908373ffffffffffffffffffffffffffffffffffffffff1602179055506020820151816001015560408201518160020155606082015181600301556080820151816004015560a0820151816005015550505060008060009054906101000a900473ffffffffffffffffffffffffffffffffffffffff1690508073ffffffffffffffffffffffffffffffffffffffff1663805593db306040518263ffffffff167c0100000000000000000000000000000000000000000000000000000000028152600401808273ffffffffffffffffffffffffffffffffffffffff1673ffffffffffffffffffffffffffffffffffffffff168152602001915050600060405180830381600087803b1580156102cf57600080fd5b505af11580156102e3573d6000803e3d6000fd5b5050505050505050505050610343565b60c060405190810160405280600073ffffffffffffffffffffffffffffffffffffffff16815260200160008019168152602001600081526020016000815260200160008152602001600081525090565b610d04806103526000396000f3fe6080604052600436106100ba576000357c0100000000000000000000000000000000000000000000000000000000900463ffffffff16806306fdde03146101355780630a430d89146101605780631dedc6f7146101db5780632e61cdec146101f2578063301374c61461024d5780637a0d0031146102a457806383240f83146102d357806387b3eaba14610371578063b6e768731461039c578063c0a9ef461461043a578063cd2048b21461049f578063f227867f146104ca575b3480156100c657600080fd5b506040517f08c379a000000000000000000000000000000000000000000000000000000000815260040180806020018281038252600f8152602001807f6e6f20657468206163636570746564000000000000000000000000000000000081525060200191505060405180910390fd5b34801561014157600080fd5b5061014a610545565b6040518082815260200191505060405180910390f35b34801561016c57600080fd5b506101996004803603602081101561018357600080fd5b810190808035906020019092919050505061054b565b604051808273ffffffffffffffffffffffffffffffffffffffff1673ffffffffffffffffffffffffffffffffffffffff16815260200191505060405180910390f35b3480156101e757600080fd5b506101f0610589565b005b3480156101fe57600080fd5b5061024b6004803603608081101561021557600080fd5b81019080803590602001909291908035906020019092919080359060200190929190803515159060200190929190505050610629565b005b34801561025957600080fd5b506102626107e9565b604051808273ffffffffffffffffffffffffffffffffffffffff1673ffffffffffffffffffffffffffffffffffffffff16815260200191505060405180910390f35b3480156102b057600080fd5b506102b961080e565b604051808215151515815260200191505060405180910390f35b3480156102df57600080fd5b5061030c600480360360208110156102f657600080fd5b8101908080359060200190929190505050610821565b604051808773ffffffffffffffffffffffffffffffffffffffff1673ffffffffffffffffffffffffffffffffffffffff168152602001868152602001858152602001848152602001838152602001828152602001965050505050505060405180910390f35b34801561037d57600080fd5b5061038661088c565b6040518082815260200191505060405180910390f35b3480156103a857600080fd5b506103d5600480360360208110156103bf57600080fd5b8101908080359060200190929190505050610892565b604051808773ffffffffffffffffffffffffffffffffffffffff1673ffffffffffffffffffffffffffffffffffffffff168152602001868152602001858152602001848152602001838152602001828152602001965050505050505060405180910390f35b34801561044657600080fd5b5061049d6004803603606081101561045d57600080fd5b81019080803573ffffffffffffffffffffffffffffffffffffffff1690602001909291908035906020019092919080359060200190929190505050610996565b005b3480156104ab57600080fd5b506104b4610c3d565b6040518082815260200191505060405180910390f35b3480156104d657600080fd5b50610503600480360360208110156104ed57600080fd5b8101908080359060200190929190505050610c4a565b604051808273ffffffffffffffffffffffffffffffffffffffff1673ffffffffffffffffffffffffffffffffffffffff16815260200191505060405180910390f35b60045481565b60028181548110151561055a57fe5b906000526020600020016000915054906101000a900473ffffffffffffffffffffffffffffffffffffffff1681565b600360009054906101000a900460ff161561060c576040517f08c379a000000000000000000000000000000000000000000000000000000000815260040180806020018281038252600c8152602001807f6e6f7420636f6e73756d6564000000000000000000000000000000000000000081525060200191505060405180910390fd5b6001600360006101000a81548160ff021916908315150217905550565b600360009054906101000a900460ff16156106ac576040517f08c379a000000000000000000000000000000000000000000000000000000000815260040180806020018281038252600c8152602001807f6e6f7420636f6e73756d6564000000000000000000000000000000000000000081525060200191505060405180910390fd5b6106b4610c88565b33816000019073ffffffffffffffffffffffffffffffffffffffff16908173ffffffffffffffffffffffffffffffffffffffff168152505084816020018181525050828160400181815250508381606001818152505042816080018181525050438160a00181815250506006819080600181540180825580915050906001820390600052602060002090600602016000909192909190915060008201518160000160006101000a81548173ffffffffffffffffffffffffffffffffffffffff021916908373ffffffffffffffffffffffffffffffffffffffff1602179055506020820151816001015560408201518160020155606082015181600301556080820151816004015560a0820151816005015550505081600360006101000a81548160ff0219169083151502179055505050505050565b6000809054906101000a900473ffffffffffffffffffffffffffffffffffffffff1681565b600360009054906101000a900460ff1681565b60068181548110151561083057fe5b90600052602060002090600602016000915090508060000160009054906101000a900473ffffffffffffffffffffffffffffffffffffffff16908060010154908060020154908060030154908060040154908060050154905086565b60055481565b6000806000806000806006878154811015156108aa57fe5b906000526020600020906006020160000160009054906101000a900473ffffffffffffffffffffffffffffffffffffffff166006888154811015156108eb57fe5b90600052602060002090600602016001015460068981548110151561090c57fe5b90600052602060002090600602016003015460068a81548110151561092d57fe5b90600052602060002090600602016002015460068b81548110151561094e57fe5b90600052602060002090600602016004015460068c81548110151561096f57fe5b90600052602060002090600602016005015495509550955095509550955091939550919395565b600360009054906101000a900460ff1615610a19576040517f08c379a000000000000000000000000000000000000000000000000000000000815260040180806020018281038252600c8152602001807f6e6f7420636f6e73756d6564000000000000000000000000000000000000000081525060200191505060405180910390fd5b60028390806001815401808255809150509060018203906000526020600020016000909192909190916101000a81548173ffffffffffffffffffffffffffffffffffffffff021916908373ffffffffffffffffffffffffffffffffffffffff16021790555050610a87610c88565b30816000019073ffffffffffffffffffffffffffffffffffffffff16908173ffffffffffffffffffffffffffffffffffffffff16815250507f436f6c6c61626f7261746520696e206d65726765000000000000000000000000816020018181525050818160400181815250508281606001818152505042816080018181525050438160a00181815250506006819080600181540180825580915050906001820390600052602060002090600602016000909192909190915060008201518160000160006101000a81548173ffffffffffffffffffffffffffffffffffffffff021916908373ffffffffffffffffffffffffffffffffffffffff1602179055506020820151816001015560408201518160020155606082015181600301556080820151816004015560a082015181600501555050503073ffffffffffffffffffffffffffffffffffffffff16631dedc6f76040518163ffffffff167c0100000000000000000000000000000000000000000000000000000000028152600401600060405180830381600087803b158015610c1f57600080fd5b505af1158015610c33573d6000803e3d6000fd5b5050505050505050565b6000600680549050905090565b600181815481101515610c5957fe5b906000526020600020016000915054906101000a900473ffffffffffffffffffffffffffffffffffffffff1681565b60c060405190810160405280600073ffffffffffffffffffffffffffffffffffffffff1681526020016000801916815260200160008152602001600081526020016000815260200160008152509056fea165627a7a723058206f95b056592e2ac2cf47a5c7b7777f2999cf17fe7b8ef51d8a5a8777f1d144c40029",
  "source": "pragma solidity >=0.4.22 <0.6.0;\r\n\r\nimport \"./Database.sol\";\r\n\r\n\r\n\r\n /*Constructor  */\r\ncontract Product {\r\n    //Reference to its database contract\r\n    address public DATABASE_CONTRACT;\r\n    //Reference to its product factory.\r\n   // address public PRODUCT_FACTORY;\r\n\r\n    // This struct represents an action realized by a handler on the product.\r\n    struct Action {\r\n        //address of the individual or the organization who realizes the action.\r\n        address handler;\r\n        //description of the action.\r\n        bytes32 description;\r\n        // Longitude x10^10 where the Action is done.\r\n        uint256 lon;\r\n        // Latitude x10^10 where the Action is done.\r\n        uint256 lat;\r\n\r\n        // Instant of time when the Action is done.\r\n        uint timestamp;\r\n        // Block when the Action is done.\r\n        uint blockNumber;\r\n    }\r\n\r\n    // if the Product is consumed the transaction can't be done.\r\n    modifier notConsumed {\r\n        if (isConsumed)\r\n        revert(\"not consumed\");\r\n        _;\r\n    }\r\n\r\n    // addresses of the products which were used to build this Product.\r\n    address[] public parentProducts;\r\n    // addresses of the products which are built by this Product.\r\n    address[] public childProducts;\r\n\r\n    // indicates if a product has been consumed or not.\r\n    bool public isConsumed;\r\n\r\n    // indicates the name of a product.\r\n    bytes32 public name;\r\n\r\n    // Additional information about the Product, generally as a JSON object\r\n    bytes32 public additionalInformation;\r\n\r\n    // all the actions which have been applied to the Product.\r\n    Action[] public actions;\r\n\r\n    function getNumberOfActions() public view returns(uint256) {\r\n        return actions.length;\r\n    }\r\n\r\n    function getAction(uint index) public view returns(address, bytes32, uint256, uint256, uint, uint) {\r\n        return (\r\n            actions[index].handler, actions[index].description, actions[index].lat, \r\n            actions[index].lon, actions[index].timestamp, actions[index].blockNumber);\r\n    }\r\n\r\n    /////////////////\r\n    // Constructor //\r\n    /////////////////\r\n\r\n  /* @notice Constructor to create a Product\r\n     @param _name The name of the Product\r\n     @param _additionalInformation Additional information about the Product,\r\n            generally as a JSON object.\r\n     @param _parentProducts Addresses of the parent products of the Product.\r\n     @param _lon Longitude x10^10 where the Product is created.\r\n     @param _lat Latitude x10^10 where the Product is created.\r\n     @param _DATABASE_CONTRACT Reference to its database contract\r\n     @param _PRODUCT_FACTORY Reference to its product factory */\r\n\r\n    constructor (\r\n        bytes32 _name, bytes32 _additionalInformation, uint256 _lat, uint256 _lon, address _DATABASE_CONTRACT) public {\r\n        name = _name;\r\n        isConsumed = false;\r\n        additionalInformation = _additionalInformation;\r\n\r\n        DATABASE_CONTRACT = _DATABASE_CONTRACT;\r\n        //Action\r\n        Action memory creation;\r\n        creation.handler = msg.sender;\r\n        creation.description = \"Product creation\";\r\n        creation.lon = _lon;\r\n        creation.lat = _lat;\r\n        creation.timestamp = now;\r\n        creation.blockNumber = block.number;\r\n\r\n        actions.push(creation);\r\n\r\n        Database database = Database(DATABASE_CONTRACT);\r\n        database.storeProductReference(address(this));\r\n    }\r\n\r\n    function () external {\r\n        // If anyone wants to send Ether to this contract, the transaction gets rejected\r\n        revert(\"no eth accepted\");\r\n    }\r\n\r\n  /* @notice Function to add an Action to the product.\r\n     @param _description The description of the Action.\r\n     @param _lon Longitude x10^10 where the Action is done.\r\n     @param _lat Latitude x10^10 where the Action is done.\r\n     @param _newProductNames In case that this Action creates more products from\r\n            this Product, the names of the new products should be provided here.\r\n     @param _newProductsAdditionalInformation In case that this Action creates more products from\r\n            this Product, the additional information of the new products should be provided here.\r\n     @param _consumed True if the product becomes consumed after the action. */\r\n\r\n    function addAction (\r\n        bytes32 description, uint256 lat, uint256 lon, bool _consumed) public notConsumed {\r\n        //if (newProductsNames.length != newProductsAdditionalInformation.length) revert();\r\n\r\n        Action memory action;\r\n        action.handler = msg.sender;\r\n        action.description = description;\r\n        action.lon = lon;\r\n        action.lat = lat;\r\n        action.timestamp = now;\r\n        action.blockNumber = block.number;\r\n\r\n\r\n        actions.push(action);\r\n        isConsumed = _consumed;\r\n    }\r\n\r\n\r\n    function collaborateInMerge(address newProductAddress, uint256 lat, uint256 lon) public notConsumed {\r\n        childProducts.push(newProductAddress);\r\n\r\n        Action memory action;\r\n        action.handler = address(this);\r\n        action.description = \"Collaborate in merge\";\r\n        action.lon = lon;\r\n        action.lat = lat;\r\n        action.timestamp = now;\r\n        action.blockNumber = block.number;\r\n\r\n        actions.push(action);\r\n\r\n        this.consume();\r\n    }\r\n\r\n    /* Function to consume the Product */\r\n    function consume() public notConsumed {\r\n        isConsumed = true;\r\n    }\r\n}\r\n",
  "sourcePath": "D:/Users/sandr/Source/Repos/BlockchainProjects/Pomi_SCTS/contracts/Product.sol",
  "compiler": {
    "name": "solc",
    "version": "0.5.0+commit.1d4f565a.Emscripten.clang"
  },
  "schemaVersion": "3.0.3",
  "updatedAt": "2019-07-02T08:16:42.437Z",
  "devdoc": {
    "methods": {}
  },
  "userdoc": {
    "methods": {
      "constructor": "//////////////"
    }
  }
}